:020000007fff80
:020001007f611d
:020002007d89f6
:020003007a7c05
:02000400764143
:0200050070e2a7
:020006006a6d21
:0200070062f1a4
:020008005a821a
:02000900513371
:02000a00471c91
:02000b003c5661
:02000c0030fbc7
:02000d002528a4
:02000e0018f9df
:02000f000c8c57
:020010000000ee
:02001100f37486
:02001200e707fe
:02001300dad839
:02001400cf0516
:02001500c3aa7c
:02001600b8e44c
:02001700aecd6c
:02001800a57ec3
:020019009d0f39
:02001a009593bc
:02001b008f1e36
:02001c0089bf9a
:02001d008584d8
:02001e008277e7
:02001f00809fc0
:0200200080015d
:02002100809fbe
:020022008277e3
:020023008584d2
:0200240089bf92
:020025008f1e2c
:020026009593b0
:020027009d0f2b
:02002800a57eb3
:02002900aecd5a
:02002a00b8e438
:02002b00c3aa66
:02002c00cf05fe
:02002d00dad81f
:02002e00e707e2
:02002f00f37468
:020030000000ce
:020031000c8c35
:0200320018f9bb
:0200330025287e
:0200340030fb9f
:020035003c5637
:02003600471c65
:02003700513343
:020038005a82ea
:0200390062f172
:02003a006a6ded
:02003b0070e271
:02003c0076410b
:02003d007a7ccb
:02003e007d89ba
:02003f007f61df
:00000001FF
