:0400000000000000fc
:040001000003243f95
:040002000006487f2d
:0400030000096cbec6
:04000400000c90fe5e
:04000500000fb53df6
:040006000012d97c8f
:040007000015fdbc27
:04000800001921fbbf
:04000900001c463b56
:04000a00001f6a7aef
:04000b0000228eb988
:04000c000025b2f821
:04000d000028d738b8
:04000e00002bfb7751
:04000f00002f1fb6e9
:04001000003243f582
:040011000035683519
:0400120000388c74b2
:04001300003bb0b34b
:04001400003ed4f2e4
:040015000041f9317c
:0400160000451d7014
:04001700004841afad
:04001800004b65ee46
:04001900004e8a2cdf
:04001a000051ae6b78
:04001b000054d2aa11
:04001c000057f6e9aa
:04001d00005b1b2742
:04001e00005e3f66db
:04001f00006163a574
:04002000006487e30e
:040021000067ac21a7
:04002200006ad06040
:04002300006df49eda
:04002400007118dc73
:0400250000743d1a0c
:0400260000776159a5
:04002700007a85973f
:04002800007da9d4da
:040029000080ce1273
:04002a000083f2500d
:04002b000087168ea6
:04002c00008a3acb41
:04002d00008d5f09da
:04002e000090834675
:04002f000093a7840f
:040030000096cbc1aa
:040031000099effe45
:04003200009d143bde
:0400330000a0387879
:0400340000a35cb514
:0400350000a680f2af
:0400360000a9a52f49
:0400370000acc96be5
:0400380000afeda880
:0400390000b311e41b
:04003a0000b63621b5
:04003b0000b95a5d51
:04003c0000bc7e99ed
:04003d0000bfa2d589
:04003e0000c2c71124
:04003f0000c5eb4cc1
:0400400000c90f885c
:0400410000cc33c3f9
:0400420000cf57ff95
:0400430000d27c3a31
:0400440000d5a075ce
:0400450000d8c4b06b
:0400460000dbe8eb08
:0400470000df0d26a3
:0400480000e2316041
:0400490000e5559bde
:04004a0000e879d57c
:04004b0000eb9e0f19
:04004c0000eec249b7
:04004d0000f1e68355
:04004e0000f50abdf2
:04004f0000f82ef691
:0400500000fb53302e
:0400510000fe7769cd
:0400520001019ba26b
:040053000104bfdb0a
:040054000107e414a8
:04005500010b084d46
:04005600010e2c85e6
:04005700011150bd86
:04005800011474f625
:040059000117992ec4
:04005a00011abd6664
:04005b00011de19d05
:04005c00012105d5a4
:04005d0001242a0c44
:04005e0001274e43e5
:04005f00012a727a86
:04006000012d96b127
:040061000130bae7c9
:040062000133df1e69
:04006300013703540a
:04006400013a278aac
:04006500013d4bc04e
:0400660001406ff6f0
:040067000143942b92
:040068000146b86035
:040069000149dc96d7
:04006a00014d00ca7a
:04006b00015024ff1d
:04006c0001534934bf
:04006d0001566d6863
:04006e000159919c07
:04006f00015cb5d0ab
:04007000015fda034f
:040071000162fe37f3
:040072000166226a97
:040073000169469d3c
:04007400016c6ad0e1
:04007500016f8f0385
:040076000172b3352b
:040077000175d767d1
:040078000178fb9977
:04007900017c1fcb1c
:04007a00017f43fcc3
:04007b000182682d69
:04007c0001858c5e10
:04007d000188b08fb7
:04007e00018bd4bf5f
:04007f00018ef8f006
:0400800001921d20ac
:040081000195415054
:040082000198657ffd
:04008300019b89aea6
:04008400019eaddd4f
:0400850001a1d20cf7
:0400860001a4f63ba0
:0400870001a81a6949
:0400880001ab3e97f3
:0400890001ae62c59d
:04008a0001b186f248
:04008b0001b4ab20f1
:04008c0001b7cf4d9c
:04008d0001baf37a47
:04008e0001be17a6f2
:04008f0001c13bd29e
:0400900001c45ffe4a
:0400910001c7842af5
:0400920001caa855a2
:0400930001cdcc804f
:0400940001d0f0abfc
:0400950001d414d6a8
:0400960001d7390055
:0400970001da5d2a03
:0400980001dd8154b1
:0400990001e0a57d60
:04009a0001e3c9a60f
:04009b0001e6edcfbe
:04009c0001ea11f76d
:04009d0001ed36201b
:04009e0001f05a48cb
:04009f0001f37e6f7c
:0400a00001f6a2972c
:0400a10001f9c6bedd
:0400a20001fceae48f
:0400a30002000f0b3d
:0400a40002033331ef
:0400a50002065757a1
:0400a60002097b7c54
:0400a700020c9fa107
:0400a800020fc3c6ba
:0400a9000212e7eb6d
:0400aa0002160c0f1f
:0400ab0002193033d3
:0400ac00021c545787
:0400ad00021f787a3c
:0400ae0002229c9df1
:0400af000225c0bfa7
:0400b0000228e4e25c
:0400b100022c090410
:0400b200022f2d25c7
:0400b300023251477d
:0400b4000235756735
:0400b50002389988ec
:0400b600023bbda8a4
:0400b700023ee1c85c
:0400b800024205e813
:0400b90002452a07cb
:0400ba0002484e2684
:0400bb00024b72443e
:0400bc00024e9662f8
:0400bd000251ba80b2
:0400be000254de9e6c
:0400bf00025802bb26
:0400c000025b26d7e2
:0400c100025e4af49d
:0400c20002616f1058
:0400c3000264932b15
:0400c4000267b747d1
:0400c500026adb628e
:0400c600026dff7c4c
:0400c7000271239609
:0400c800027447b0c7
:0400c90002776bc986
:0400ca00027a8fe245
:0400cb00027db3fb04
:0400cc000280d813c3
:0400cd000283fc2b83
:0400ce000287204243
:0400cf00028a445a03
:0400d000028d6870c5
:0400d10002908c8786
:0400d2000293b09c49
:0400d3000296d4b20b
:0400d4000299f8c7ce
:0400d500029d1cdc90
:0400d60002a040f054
:0400d70002a3650417
:0400d80002a68917dc
:0400d90002a9ad2aa1
:0400da0002acd13d66
:0400db0002aff54f2c
:0400dc0002b31961f1
:0400dd0002b63d73b7
:0400de0002b961847e
:0400df0002bc859446
:0400e00002bfa9a40e
:0400e10002c2cdb4d6
:0400e20002c5f1c39f
:0400e30002c915d267
:0400e40002cc39e130
:0400e50002cf5deffa
:0400e60002d281fcc5
:0400e70002d5a6098f
:0400e80002d8ca165a
:0400e90002dbee2226
:0400ea0002df122ef1
:0400eb0002e23639be
:0400ec0002e55a448b
:0400ed0002e87e4f58
:0400ee0002eba25926
:0400ef0002eec663f4
:0400f00002f1ea6cc3
:0400f10002f50e7492
:0400f20002f8327d61
:0400f30002fb568432
:0400f40002fe7a8c02
:0400f50003019e93d2
:0400f6000304c299a4
:0400f7000307e69f76
:0400f800030b0aa448
:0400f900030e2ea91b
:0400fa00031152aeee
:0400fb00031476b2c2
:0400fc0003179ab597
:0400fd00031abeb96b
:0400fe00031de2bb41
:0400ff00032106bd16
:00000001FF
