:020000000000fe
:020001000032cb
:02000200006597
:02000300009764
:0200040000c931
:0200050000fbfe
:02000600012ec9
:02000700016096
:02000800019263
:0200090001c430
:02000a0001f7fc
:02000b000229c8
:02000c00025b95
:02000d00028d62
:02000e0002c02e
:02000f0002f2fb
:020010000324c7
:02001100035694
:02001200038960
:0200130003bb2d
:0200140003edfa
:02001500041fc6
:02001600045292
:0200170004845f
:0200180004b62c
:0200190004e8f9
:02001a00051bc4
:02001b00054d91
:02001c00057f5e
:02001d0005b12b
:02001e0005e3f8
:02001f000616c3
:02002000064890
:02002100067a5d
:0200220006ac2a
:0200230006def7
:020024000711c2
:0200250007438f
:0200260007755c
:0200270007a729
:0200280007d9f6
:02002900080bc2
:02002a00083e8e
:02002b0008705b
:02002c0008a228
:02002d0008d4f5
:02002e000906c1
:02002f0009388e
:02003000096a5b
:02003100099d27
:0200320009cff4
:020033000a01c0
:020034000a338d
:020035000a655a
:020036000a9727
:020037000ac9f4
:020038000afbc1
:020039000b2d8d
:02003a000b5f5a
:02003b000b9226
:02003c000bc4f3
:02003d000bf6c0
:02003e000c288c
:02003f000c5a59
:00000001FF
